:100000000C94D5000C94FD000C94FD000C94FD00A4
:100010000C94FD000C94FD000C94FD000C94FD006C
:100020000C94FD000C94FD000C94280F0C94970F79
:100030000C94FD000C94FD000C94FD000C94FD004C
:100040000C94FD000C9421120C94FD000C94FD0006
:100050000C94FD000C94FD000C94FD000C94DE0E3D
:100060000C94FD000C94EF110C94C9110C94FD003C
:100070000C94FD000C94FD000C94FD000C94FD000C
:100080000C94FD000C94FD000C94FD000C94FD00FC
:100090000C94FD000C94FD000C94FD000C94FD00EC
:1000A0000C94FD000C94FD000C94FD00080B000264
:1000B0000202000009040000010202000005240001
:1000C0001001052401010104240206052406000193
:1000D0000705810310004009040100020A00000026
:1000E00007050202400000070583024000000403E8
:1000F000090412010002EF02014041233680000191
:100100000102030141726475696E6F204C4C43001B
:1001100041726475696E6F204C656F6E6172646FB9
:100120000000000000240027002A002D00300000FD
:10013000000000250028002B002E003100000000E8
:10014000002300260029002C002F000404040404CE
:10015000030405020202020403020202020606066A
:100160000606060404020202040404080201104008
:100170008040102040804080080204018040201010
:100180000201108010204040200000000200090FF2
:100190000000030401000C0000000000000000004B
:1001A00000000000000000007F1211241FBECFEFEE
:1001B000DAE0DEBFCDBF11E0A0E0B1E0E6EDF7E2AE
:1001C00002C005900D92A833B107D9F727E0A8E344
:1001D000B1E001C01D92A03DB207E1F710E0C5ED0E
:1001E000D0E004C02197FE010E94CD13C43DD10789
:1001F000C9F70E94BC120C94E9130C940000CF9232
:10020000DF92EF92FF926B017C01E091F306F09197
:10021000F40682E08083C11481EED806E104F10483
:10022000A1F060E079E08DE390E0A70196010E94E3
:10023000AB1321503109410951095695479537951E
:100240002795211580E13807A8F0E091F306F09199
:10025000F406108260E874E88EE190E0A701960150
:100260000E94AB1321503109410951095695479518
:1002700037952795E091EF06F091F0063083E091F5
:10028000F106F091F20620831092FB06E091F7064A
:10029000F091F80686E08083E091F506F091F6068D
:1002A000808180618083E091F506F091F60680817F
:1002B00088608083E091F506F091F6068081806881
:1002C0008083E091F506F091F60680818F7D808332
:1002D000FF90EF90DF90CF900895FC018091E206AF
:1002E000882311F13FB7F89482E08093E9002091D0
:1002F000F200822F90E01816190614F481E090E0C5
:10030000882339F0289844E64093E1064091F100B3
:100310004083222339F02091F200211103C02BE603
:100320002093E8003FBF08958FEF9FEF08952FB708
:10033000F89483E08093E9009091E800892F80721F
:1003400095FF04C09091F20080E4891B2FBF0895AF
:100350008091D90681110DC082E08093D50684E09A
:100360008093D6061092D8061092D70681E080932B
:10037000D90685ED96E0089581508F3008F047C08A
:10038000E82FF0E0EA53FE4F0C94CD13E301E701B0
:10039000D501DB01DF01070207020702EA01F001D4
:1003A000F401F801FE0107020202809180008F77BC
:1003B000809380000895809180008F7DF9CF809197
:1003C0008000877FF5CF84B58F7784BD089584B58D
:1003D0008F7DFBCF809190008F7780939000089560
:1003E000809190008F7DF9CF80919000877FF5CF2D
:1003F0008091C0008F778093C00008958091C000E5
:100400008F7DF9CF8091C200877F8093C2000895CD
:10041000CF93DF93282F30E0F901E757FE4F849107
:10042000F901E659FE4FD491F901E55BFE4FC49105
:10043000CC23A1F081110E94BC01EC2FF0E0EE0F63
:10044000FF1FE35CFE4FA591B491EC91ED2381E099
:1004500090E009F480E0DF91CF91089580E090E092
:10046000FACF1F93CF93DF93282F30E0F901E7579E
:10047000FE4F8491F901E659FE4FD491F901E55BF5
:10048000FE4FC491CC23A9F0162F81110E94BC010C
:10049000EC2FF0E0EE0FFF1FE15DFE4FA591B49150
:1004A0008FB7F894EC91111108C0D095DE23DC933E
:1004B0008FBFDF91CF911F910895DE2BF8CFCF939F
:1004C000DF9390E0FC01E659FE4F2491855B9E4F3F
:1004D000FC0184918823D1F090E0880F991FFC01E2
:1004E000EF5DFE4FA591B491FC01E15DFE4FC5911A
:1004F000D49161110EC09FB7F8948C91E22FE095D2
:100500008E238C932881E223E8839FBFDF91CF91D4
:1005100008958FB7F894EC91E22BEC938FBFF6CF50
:100520003FB7F8948091D1069091D206A091D3065E
:10053000B091D40626B5A89B05C02F3F19F00196AF
:10054000A11DB11D3FBFBA2FA92F982F8827BC012D
:10055000CD01620F711D811D911D42E0660F771F55
:10056000881F991F4A95D1F708958F929F92AF9255
:10057000BF92CF92DF92EF92FF926B017C010E94BB
:1005800090024B015C01C114D104E104F104B9F003
:100590000E949002681979098A099B09683E734094
:1005A0008105910580F321E0C21AD108E108F10824
:1005B00088EE880E83E0981EA11CB11CE4CFFF904A
:1005C000EF90DF90CF90BF90AF909F908F90089565
:1005D0002FB7F8946091CD067091CE068091CF062A
:1005E0009091D0062FBF08954091C6065091C7063E
:1005F0002091C4063091C50642175307B4F4909178
:10060000E8009570E1F39091E80092FD19C08093A5
:10061000F1008091C6069091C70601968F739927C5
:10062000892B19F48EEF8093E8008091C606909193
:10063000C70601969093C7068093C60681E0089589
:1006400080E00895EF92FF920F931F93CF93DF9373
:10065000F82E192FE62E042F81E0860F880F0E94B6
:10066000F40283E00E94F402CF2DD12FEC0EFD2E78
:10067000F11CCE15DF05B9F007FF13C0FE01849110
:100680000E94F402182F80E00E94F4028123219638
:100690008111EFCFDF91CF911F910F91FF90EF90DC
:1006A00008958881EDCF81E0F5CFDF92EF92FF9240
:1006B0000F931F93CF93DF93D82E8A01EB017B0119
:1006C000E40EF51ECE15DF0559F0D7FE12C0FE016F
:1006D00084910E94F40221968111F4CF0FEF1FEF55
:1006E000C801DF91CF911F910F91FF90EF90DF90A4
:1006F00008958881EECF0F931F93CF93DF931F92BE
:10070000CDB7DEB782E0898342E450E06CEA70E066
:1007100080E80E9455030E94A801DC0112960D9109
:100720001C910115110589F0D801ED91FC91028011
:10073000F381E02DBE016F5F7F4FC801099597FDE2
:1007400004C0F80100851185ECCF89810F90DF91FD
:10075000CF911F910F910895615030F02091F100D9
:10076000FC0120830196F8CF289884E68093E10667
:100770000895AF92BF92CF92DF92EF92FF920F93C4
:100780001F93CF93DF936C017B018B01040F151F27
:10079000EB015E01AE18BF08C017D10759F069918F
:1007A000D601ED91FC910190F081E02DC6010995F3
:1007B000892B79F7C501DF91CF911F910F91FF90A0
:1007C000EF90DF90CF90BF90AF900895FC01538DD4
:1007D000448D252F30E0842F90E0821B930B54171B
:1007E00010F0CF96089501970895FC01918D828DA8
:1007F000981761F0A28DAE0FBF2FB11D5D968C9141
:10080000928D9F5F9F73928F90E008958FEF9FEF7F
:100810000895FC01918D828D981731F0828DE80F3B
:10082000F11D858D90E008958FEF9FEF0895FC01F5
:10083000918D228D892F90E0805C9F4F821B9109C2
:100840008F739927089583EE96E00E94170421E0A4
:10085000892B09F420E0822F089580E090E0892B15
:1008600029F00E94230481110C9400000895FC01DA
:10087000A48DA80FB92FB11DA35ABF4F2C91848D01
:1008800090E001968F739927848FA689B7892C935E
:10089000A089B1898C9182748C93938D848D9813E7
:1008A00006C00288F389E02D80818F7D80830895C2
:1008B000EF92FF920F931F93CF93DF93EC0181E0B0
:1008C000888F9B8D8C8D981319C0E889F989808158
:1008D00085FF14C09FB7F894EE89FF896083E8898B
:1008E000F9898081827480839FBF81E090E0DF91ED
:1008F000CF911F910F91FF90EF900895F62E0B8DE1
:1009000010E00F5F1F4F0F731127E02E8C8D8E119B
:100910000CC00FB607FCFACFE889F989808185FF02
:10092000F5CFCE010E943704F1CFEB8DEC0FFD2FF8
:10093000F11DE35AFF4FF0829FB7F8940B8FEA89BD
:10094000FB8980818062CFCFCF93DF93EC01888DCC
:100950008823B9F0AA89BB89E889F9898C9185FD3A
:1009600003C0808186FD0DC00FB607FCF7CF8C91C8
:1009700085FFF2CF808185FFEDCFCE010E94370445
:10098000E9CFDF91CF91089583EE96E00E94A40411
:10099000E3EEF6E0A289B3898C918F7E8C93A289D5
:1009A000B3898C91877F8C93A289B3898C918F773F
:1009B0008C93A289B3898C918F7D8C93828D818F4A
:1009C00008958F929F92AF92BF92CF92DF92EF9253
:1009D000FF920F931F93CF93DF936C017B018A01EA
:1009E00080910C01882309F45CC08091E206882381
:1009F00009F457C08091CA0680FF05C08091E000CD
:100A000082608093E000E801B12C8AEFA82E93E089
:100A1000892E2AE3922E209711F4BB20D9F10E944F
:100A2000970181110AC0AA94AA20D9F161E070E06F
:100A300080E090E00E94B502EECF8C171D0611F009
:100A40000CF08C2F9FB7F8948092E9002091E80079
:100A500025FD02C09FBFDFCF282F30E0C21BD30B84
:100A6000F701815020F041914093F100FACFE20E5E
:100A7000F31EBB2021F09092E800B12CEBCF8091C7
:100A8000E80085FDE7CF9092E800BB24B39420975F
:100A900009F3F3CF5D9884E68093C906101611061A
:100AA0003CF081E090E0F6019383828310E000E067
:100AB000C801DF91CF911F910F91FF90EF90DF90D0
:100AC000CF90BF90AF909F908F900895CF93DF937A
:100AD0001F92CDB7DEB76983DC01ED91FC910280F6
:100AE000F381E02D41E050E0BE016F5F7F4F09953B
:100AF0000F90DF91CF91089583E08093E90080917A
:100B0000F200882319F08AE38093E80008950E9498
:100B1000970190E00895CF93DF931F92CDB7DEB792
:100B2000FC018485958597FD08C02FEF3FEF358741
:100B300024870F90DF91CF910895CE0101960E94F6
:100B40006D01019719F4898190E0F3CF8FEF9FEF4A
:100B5000F0CF0F931F93CF93DF931F92CDB7DEB7E4
:100B60008C01FC018485958597FF0BC0CE01019611
:100B70000E946D01019771F4898190E0F8019587D9
:100B80008487F801848595850F90DF91CF911F911F
:100B90000F9108958FEF9FEFF1CFFC01848595852C
:100BA00097FD0BC09FB7F89482E08093E900809195
:100BB000F2009FBF90E0019608959FB7F89482E0FD
:100BC0008093E9008091F2009FBF90E008959FB765
:100BD000F8948091C306882319F081508093C3064E
:100BE0008091C306811103C08CB58F7B8CBD9FBFE4
:100BF0000895CF93CFB7F8948091C306811127C091
:100C0000ECE5F1E08491EBE7F1E09491E82FF0E07E
:100C1000EE0FFF1FEF5DFE4FA591B491EC91E9231C
:100C200021F461E081E10E94310261E081E10E94F2
:100C30005F028CB580618CBD8CB580648CBD61E039
:100C40008FE00E945F0261E080E10E945F0280917C
:100C5000C3068F5F8093C306CFBFCF910895809165
:100C6000B705882341F08091C90084FF04C08091BA
:100C7000C90083FD25C00E94E70560E08FE00E9467
:100C80005F0260E080E10E945F0260E08EE00E940F
:100C90005F0260E080E00E945F0260E080E00E940E
:100CA000310260EC72E180E090E00E94FF0081E0A0
:100CB0008093B7056AE070E080E090E00C94B502A4
:100CC00008952091490330914A03A9014F5F5F4F76
:100CD000F901E75CFE4F803C71F48BED80832E5F61
:100CE0003F4F30934A0320934903475C5E4F8CED9E
:100CF000FA01808308958B3D59F480832E5F3F4F26
:100D000030934A0320934903475C5E4F8DEDF0CF4B
:100D100050934A0340934903ECCF80950E946106AB
:100D20008091490390914A03AC014F5F5F4F50930C
:100D30004A0340934903875C9E4F20ECFC012083CB
:100D400069E371E080E897E00C94E104E9E3F1E005
:100D500090EC9083818382E090E090934A038093AB
:100D60004903089585E40E94A60685E40C948D0647
:100D700084E40E94A60684E40C948D0661E08DE074
:100D80000C94310260E08DE00C9431028EBD0000C5
:100D90000DB407FEFDCF8EB508950C94C6060E94D3
:100DA000C20686E00E94CD060C94BE06CF92DF926A
:100DB000EF92FF92CF9381E8C82E8DE8D82E8BE575
:100DC000E82EF12C0E94C20685E00E94CD0680E04C
:100DD0000E94C606C82F0E94BE06C0FF06C081E062
:100DE000C81AD108E108F10869F7CF91FF90EF9098
:100DF000DF90CF9008953F924F925F926F927F92D3
:100E00008F929F92AF92BF92CF92DF92EF92FF921A
:100E10000F931F93CF93DF93CDB7DEB7DA950FB65D
:100E2000F894DEBF0FBECDBF8091B805882309F4CA
:100E30003FC00E94E8020091B1051091B2052091D7
:100E4000B3053091B4056B017C01C01AD10AE20AE6
:100E5000F30A97018601023011052105310540F1A1
:100E60006093B1057093B2058093B3059093B40578
:100E700089B190E095958795959587958370909128
:100E800000018917A9F0809300012091B5053091E8
:100E9000B605211592E0390758F4A9014F5F5F4F5D
:100EA0005093B6054093B5052F543C4FF90180830C
:100EB000DD24D39480E897E00E94CD05892B09F4C6
:100EC000DDC180E897E00E948B0590914C03803C47
:100ED00009F0AAC1992309F49EC10091C10610919D
:100EE000C2060230110508F496C129EBE22E25E076
:100EF000F22EF70180E09191890F9F01295B354027
:100F000020173107C0F38F3F09F085C10150110947
:100F10001093C2060093C10610924C038091B9054C
:100F2000823F09F480C508F0B2C0803E09F4C2C116
:100F300008F046C08F3909F47BC6F8F4823009F412
:100F4000B4C6833009F4EFC6D3950FB6F894DEBF6C
:100F50000FBECDBFDF91CF911F910F91FF90EF900A
:100F6000DF90CF90BF90AF909F908F907F906F90C9
:100F70005F904F903F900C94B806873C09F489C667
:100F8000883D11F78091BA05C090BB05D12CF12C9A
:100F9000E12CFE2CED2CDC2CCC24E82A8091BC0525
:100FA000C82A0E94CF060E94C20680E20E94CD0697
:100FB0008E2D0E94CD068D2D0E94CD068C2D6EC6E5
:100FC0008F3E09F42AC658F5813E09F404C28E3ECC
:100FD00009F0BACF60E082E00E94310264E170E083
:100FE00080E090E00E94B50283E00E940802892B15
:100FF00009F063C10E94C2068BEA0E94CD0680E020
:101000000E94CD0680E00E94CD0680E00E94CD06C1
:101010000E94BE0683EC90E00197F1F795CF803FE8
:1010200009F450C2813F09F08FCF0130110509F456
:1010300044C18090BA0594E0C92ED12CC016D106C7
:1010400008F045C299249394F7018381811101C06E
:10105000912CF701B4808281B0E1AB2E811102C0E6
:101060008FE0A82E61E08A2D0E945F02692D8A2DF3
:101070000E9431026B2D70E090E080E00E94B5028A
:10108000F3E0CF0ED11C23E0E20EF11CD7CF883F56
:1010900009F4EFC308F067C0853F09F441C5C8F5FE
:1010A000833F09F432C2843F09F04ECF0E94F90514
:1010B0008CB58C7F81608CBD8DB581608DBD8CB50C
:1010C000837F8CBD61E08DE00E94310261E08DE0A4
:1010D0000E945F020150013208F000E284EF0E949A
:1010E000A606802F0E94610614EF100FFAEBCF2E98
:1010F000F5E0DF2EF12C0F1509F48DC5F601819175
:101100006F010E94C606E82E0E9461061E0DF39430
:10111000F2CF863F09F40BC4873F09F015CF83E077
:101120000E940802FF24F394892B09F4F12C82E039
:101130000E94080201E0892B09F400E013B113FBBF
:10114000112710F987EF0E94A6068F2D0E946106D5
:10115000802F0E94610687EF810FF80E812F0E9479
:1011600061068F2D36C18B3F09F431C3D0F4893F1E
:1011700009F48CC28A3F09F0E7CE0130110509F469
:101180009DC21091BA050E94C40461E081E00E94F2
:101190005F0261E0111101C060E081E00E94310254
:1011A000D3CE8C3F09F4CEC28D3F09F0CDCE0130B5
:1011B000110521F08091BA05811182C20E94C404F8
:1011C00060E080E00E945F0260E081E00E945F02D8
:1011D00060E080E00E94310260E081E00E94310224
:1011E0001092B6051092B50589B190E09595879556
:1011F000959587958370809300010E94E802609323
:10120000B1057093B2058093B3059093B40581E066
:101210008093B80599CE1092C2061092C106D09262
:101220004C0310924B0346CE992309F443CE8B3DD9
:1012300019F4D0924B033ECE90914B03992349F081
:101240008C3D21F08D3D19F48BED01C080EC1092A6
:101250004B032091C1063091C2062830F1E03F07D0
:1012600008F028CEA9014F5F5F4F5093C20640930C
:10127000C10627543A4FF90180831CCE8BE193E0DD
:101280000197F1F7D3950FB6F894DEBF0FBECDBF2F
:10129000DF91CF911F910F91FF90EF90DF90CF9052
:1012A000BF90AF909F908F907F906F905F904F9086
:1012B0003F90089505301105C9F0D3950FB6F89405
:1012C000DEBF0FBECDBFDF91CF911F910F91FF9079
:1012D000EF90DF90CF90BF90AF909F908F907F90D6
:1012E0006F905F904F903F900C94B2066091BA055A
:1012F0007091BB058091BC059091BD050E94D313F0
:101300006B017C01DC01CB01805B9440A109B10938
:10131000813D9F47AE41B10580F61092B8050E940D
:10132000C40460E080E00E945F0260E080E00E9410
:10133000310261E081E00E945F0260E081E00E9492
:10134000310264E170E080E090E00E94B50261E06B
:1013500081E00E94310262E070E080E090E00E9453
:10136000B502C701B6010E94FF0081E08093B70576
:1013700065E583EE96E00E94580483EE96E00E94B5
:10138000A40469E170E080E090E00E94B50283EE81
:1013900096E00E941704892B29F083EE96E00E94C4
:1013A000F503F5CF80EE0E94A6061091CD00F090D7
:1013B000CC000091C80006950170812F0E94610643
:1013C0008F2D0E946106802F0E946106812F8F0D54
:1013D0008052800F5EC08091B705882309F46DCFDD
:1013E0008EEF800F803308F068CF83EE96E00E9486
:1013F0001704892B29F083EE96E00E94F503F5CFC0
:101400000150402F50E06AEB75E083EE96E00E94B9
:10141000B90383EE96E00E94A4040E94E8024B0107
:101420005C019E012F5F3F4F6901790110E01017A9
:10143000D0F40E94E802681979098A099B096A3F79
:1014400071058105910578F483EE96E00E941704FA
:10145000892B69F383EE96E00E94F5031F5FF70185
:1014600081937F01E4CF81EE0E94A60601EE010F79
:10147000812F0E94610676018E2D8C19811740F410
:10148000F701B1907F018B2D0E9461060B0DF4CF07
:10149000802FD3950FB6F894DEBF0FBECDBFDF917E
:1014A000CF911F910F91FF90EF90DF90CF90BF9061
:1014B000AF909F908F907F906F905F904F903F90F4
:1014C0000C948D0680EF0E94A60680EFE2CF61E0CB
:1014D0008FE00E945F0260E08FE00E94310261E0D5
:1014E00080E10E945F0260E080E10E9431020E9480
:1014F000F90588EE93E0889EB001899E700D112455
:1015000090E080E00E94B5021FCD0130110509F482
:101510004BC08091BA050230110509F442C0A09079
:10152000BB05D090BC050330110509F4D12C70E146
:10153000E72E882331F0E82E30E2381710F4E0E28D
:10154000EE2E0E94E70560E08FE00E945F0260E0FF
:1015500080E10E945F0260E08EE00E945F0260E036
:101560008DE00E945F0260E08EE00E94310260E048
:1015700080E10E94310260E08DE00E943102CE01E4
:1015800001964C018C01C12CF12C332433944A2C4C
:10159000512C712C612CD1100EC01B9923C0F80165
:1015A0002DC0A4E6AA2EC2CFF4E6AF2E80E1D12C46
:1015B000C2CFCB2CF0CF91E0D9120FC01A9BEFCF46
:1015C000F801D0828C2D877021E030E002C0220F1C
:1015D000331F8A95E2F7F22A12C0E2E0DE1205C05C
:1015E0001F9BDDCFF8013082EDCFF3E0DF1203C0A7
:1015F0001999F8CFD4CFF8014B99F5CF1082AA20D2
:1016000009F43FC0C301B2010E94B502BB24B394E8
:10161000BC0C0F5F1F4FEB10CCCF83EF0E94A606D0
:101620008B2D0E94610634EFC30E8F2D0E94610640
:10163000FC0C8401F801E1908F018E2D0E9461065F
:10164000FE0C802F88198B15A8F38F2D0E948D0614
:10165000D3950FB6F894DEBF0FBECDBFDF91CF910B
:101660001F910F91FF90EF90DF90CF90BF90AF90C0
:101670009F908F907F906F905F904F903F900C94D1
:10168000F9058BE490E00197F1F7C0CF0E942F0697
:10169000FF24F3948F2D90E08017910750F4875426
:1016A0009A4FFC01608183EE96E00E945804F39407
:1016B000F1CF83EE96E00E94A40446CC10E063CD07
:1016C000823019F41092B8053FCC0091B505109105
:1016D000B60578010937110518F058E7E52EF12C09
:1016E000AE2C83EF0E94A6068E2D0E94610633EF7A
:1016F000D32EDE0C41EB842E43E0942EC12CCA1471
:1017000048F4F401B1904F018B2D0E946106DB0C6F
:10171000C394F5CF8D2D0E948D06F701EF54FC4F39
:10172000A1EBB3E0CF01815B93408017910718F4E0
:1017300081918D93F7CF0E191F091093B605009371
:10174000B505A0CD01301105D1F01091BA051123D6
:10175000B1F00E94C40461E080E00E945F0261E099
:1017600081E00E945F02123039F1E0F460E0113054
:1017700031F165E070E080E090E00E94B50287EF13
:101780000E94A6068AB10E9461061AB18BB10E941E
:1017900061068BB1180F195089B10E94610689B199
:1017A000810F77CE133051F060E0143011F780E0F4
:1017B0000E94310261E007C061E0F9CF61E080E0A2
:1017C0000E94310260E081E00E943102D2CF0E948B
:1017D000C40461E080E00E945F0261E081E00E9459
:1017E0005F0260E080E00E94310260E081E00E94E0
:1017F00031020E94B80613E005E061E080E00E943B
:10180000310268EC70E080E090E00E94B50260E098
:1018100080E00E94310268EC70E080E090E00E947D
:10182000B502015051F760E273E080E090E00E9461
:10183000B50205E061E081E00E94310268EC70E0F1
:1018400080E090E00E94B50260E081E00E943102F9
:1018500068EC70E080E090E00E94B502015051F722
:1018600060E273E080E090E00E94B502115021F642
:1018700009CD0330110598F1C090BA05D090BB0591
:10188000DC24CD24DC240E942F060E94E8022B01D8
:101890003C0110E0F12CE12C9E012F5F3F4F5901DC
:1018A0000E94E80264197509860997096C157D057F
:1018B0008E059F0528F54501810E911C83EE96E06B
:1018C0000E941704892B61F3103A50F783EE96E0DB
:1018D0000E94F5031F5FF40181934F01EFCF28EBC6
:1018E000C22E2BE0D22E0230110569F62091BA05E6
:1018F00088EE93E0289F6001299FD00C1124C3CF6C
:1019000088EF0E94A606812F0E94610608EF010F52
:1019100075018E2D8A19811740F4F701D1907F014E
:101920008D2D0E9461060D0DF4CF802F8FCE0130DA
:10193000110509F476C01091BA050E94E70560E030
:101940008FE00E945F0260E080E10E945F0260E041
:101950008EE00E945F0260E08EE00E9431021092F1
:10196000B0031092AF0381E08093AE031092AD03F9
:10197000F8941092800089E08093810082E896E0DC
:1019800090938900809388001092850010928400C3
:1019900080916F00826080936F0078940E94E802CB
:1019A0004B015C01212F30E0A8EEB3E00E94DA1376
:1019B0006B017C010E94E802681979098A099B0978
:1019C0006C157D058E059F0520F48091AD0388235D
:1019D00089F3F89480916F008D7F80936F0010924F
:1019E000AE03789486EF0E94A6068091B0030E9411
:1019F00061061091B0031A5000E08091B0030817FF
:101A000008F08CC0802F90E09C01235B3C4F790153
:101A1000F90180810E946106F7018081180F0F5F34
:101A2000ECCF13E08ACF0130110509F475C0109195
:101A3000BA050E94E70560E08FE00E945F0260E067
:101A400080E10E945F0260E08EE00E945F0260E041
:101A50008EE00E9431021092B0031092AF0381E039
:101A60008093AE031092AD03F8941092800089E049
:101A70008093810089E890E09093890080938800AA
:101A8000109285001092840080916F008260809394
:101A90006F0078940E94E8024B015C01212F30E036
:101AA000A8EEB3E00E94DA136B017C010E94E80209
:101AB000681979098A099B096C157D058E059F05B2
:101AC00020F48091AD03882389F3F89480916F000E
:101AD0008D7F80936F001092AE03789482EF0E9406
:101AE000A6068091B0030E9461061091B0031E50BB
:101AF00000E08091B003081788F4802F90E09C01EB
:101B0000235B3C4F7901F90180810E946106F70156
:101B10008081180F0F5FEDCF13E08BCF812F96CD13
:101B20007090BA050130110511F495EA792E0E94E2
:101B3000E70561E08DE00E945F0261E08DE00E94B8
:101B4000310261E08FE00E945F0260E08FE00E945E
:101B5000310261E080E10E945F0260E080E10E946A
:101B6000310260E08EE00E945F0260E08EE00E9441
:101B7000310207E010E0612CA72CB12CABE8EA2E73
:101B8000FF24F39488248394912C83ECC82ED12CC9
:101B9000B501002E02C0759567950A94E2F7617051
:101BA00080E10E943102C7010197F1F761E08FE007
:101BB0000E943102C7010197F1F71B9B07C0C401C6
:101BC000002E01C0880F0A94EAF7682AC60101971F
:101BD000F1F760E08FE00E943102C7010197F1F751
:101BE00001501109A8F685EF0E94A606872D0E94D4
:101BF000610615EF170D862D0E946106862D810F57
:101C00000E948D0660E080E10E94310260E08FE07A
:101C10000E9431021DCD812F3CCC0E94BE0661E0A6
:101C200082E00E94310264E670E080E090E06ACCDD
:101C30000E94C2068FE90E94CD0680E00E94C6067F
:101C400090E0B0E0A0E07C01DD24CC2480E00E94A4
:101C5000C606D82A80E00E94C606C82A0E94BE0690
:101C60008FE90E94A606270166247724842D0E940E
:101C700061068D2C9E2CAF2CBB24882D0E94610602
:101C80001FE91C0D140D8C2D0E946106812F880DFB
:101C900000CC0E94CF060E94C20687EC0E94CD06AF
:101CA0000E94BE060E94D6064FC98091BA05C09018
:101CB000BB05D12CF12CE12CFE2CED2CDC2CCC2402
:101CC000E82A8091BC05C82A0430110510F404E00C
:101CD00010E0045011090130F1E01F0710F000E09E
:101CE00011E00E94CF060E94C20682E00E94CD064B
:101CF0008E2D0E94CD068D2D0E94CD068C2D0E942A
:101D0000CD0639EBE32E35E0F32EC701895B954014
:101D10008017910728F6F70184810E94CD06FFEF16
:101D2000EF1AFF0AF2CF8091BA05C090BB05D12C03
:101D3000F12CE12CFE2CED2CDC2CCC24E82A80911B
:101D4000BC05C82A0E94C20683E00E94CD068E2DE3
:101D50000E94CD068D2C9E2CAF2CBB24882D0E947A
:101D6000CD068C2D0E94CD068E010F5F1F4F6E0198
:101D700021E0C20ED21E780180E00E94C606F70163
:101D800081937F01EC15FD05B9F70E94BE0683E043
:101D90000E94A60680E00E946106882D0E946106CE
:101DA000F3E08F0EF801D1908F018D2D0E94610616
:101DB0008D0CE016F106B1F7882D6BCB1F920F92B8
:101DC0000FB60F9211242F933F938F939F93AF934E
:101DD000BF938091CD069091CE06A091CF06B09191
:101DE000D0063091CC0623E0230F2D3758F501960D
:101DF000A11DB11D2093CC068093CD069093CE06F5
:101E0000A093CF06B093D0068091D1069091D206D0
:101E1000A091D306B091D4060196A11DB11D809367
:101E2000D1069093D206A093D306B093D406BF9167
:101E3000AF919F918F913F912F910F900FBE0F9077
:101E40001F90189526E8230F0296A11DB11DD2CF31
:101E50001F920F920FB60F9211248F939F93809130
:101E6000E1009091E100937F9093E10083FF0FC028
:101E70001092E90091E09093EB001092EC0092E355
:101E80009093ED001092E20698E09093F00082FFAC
:101E900022C093E09093E9009091F200992319F009
:101EA0009AE39093E8009091C906992341F09091AC
:101EB000C90691509093C906911101C05D9A909105
:101EC000E106992341F09091E10691509093E1064B
:101ED000911101C0289A84FF18C08091E2008E7E83
:101EE00081608093E2008091E1008F7E8093E10029
:101EF0008091CA068E7E80618093CA069F918F91E1
:101F00000F900FBE0F901F90189580FFF7CF809114
:101F1000E2008E7E80618093E2008091E1008E7EFF
:101F20008093E1008091CA068E7E8160E5CF1F928A
:101F30000F920FB60F921124CF92DF92EF92FF9281
:101F40000F931F932F933F934F935F936F937F93C1
:101F50008F939F93AF93BF93EF93FF93CF93DF93B1
:101F6000CDB7DEB76C97DEBFCDBF1092E900809190
:101F7000E80083FF25C068E0CE0145960E94AC03CF
:101F800082EF8093E8008D8987FF39C09091E80047
:101F900090FFFCCF982F907609F034C19E894F892D
:101FA000588D2F89F88C911131C0803861F580915E
:101FB000CB068093F1001092F1008EEF8093E80041
:101FC0006C960FB6F894DEBF0FBECDBFDF91CF91F8
:101FD000FF91EF91BF91AF919F918F917F916F9101
:101FE0005F914F913F912F911F910F91FF90EF9033
:101FF000DF90CF900F900FBE0F901F9018959EEF1F
:102000009093E800C7CF1092F100D5CF913059F4EA
:102010008111D3CF4130510581F68091CB068D7F60
:102020008093CB06CACF933049F48111C6CF41309B
:10203000510519F68091CB068260F2CF953041F4BC
:102040008091E80080FFFCCF20682093E300B5CFAB
:10205000963009F0A9C00B8D1C8D22E01092E9008A
:102060001092C7061092C606F2122EC01092C50634
:102070001092C4060E947B031F8299E09983FA8222
:1020800091E09E8390EA98879AEF99872091C606FF
:102090003091C706275F3F4F3C832B838D8310927F
:1020A000E9001092C7061092C6061093C506009369
:1020B000C40649E050E0BE016F5F7F4F80E00E94A0
:1020C00055030E947B0379CF1093C5060093C40685
:1020D0000E94A801DC0112960D911C9101151105B9
:1020E00009F451C1D801ED91FC910480F581E02DF6
:1020F000BE016B5E7F4FC8010995009709F03EC194
:10210000F80100851185EACFF3E0FF120EC08F8938
:10211000882309F440C0823061F440E860E180E146
:1021200091E00E942203811148CF81E28093EB006D
:1021300047CF813029F440E86BE084E091E0F1CFB3
:10214000833099F70E94A801DC011296ED90FC9073
:102150008E010F5F1F4F6801E114F10479F0D70180
:10216000ED91FC910680F781E02DB801C70109953A
:10217000080F111DF701E084F184EECFD8011C9205
:10218000F60101900020E9F73197BF016C197D0934
:1021900040E0C601C6CF6EEE70E0FB01449150E016
:1021A00080E80E94550309CF973009F4BECF9830DC
:1021B00021F481E08093F10000CF993009F0FDCE49
:1021C000837009F0B2CFEEE0F1E081E031E096E318
:1021D0002191222371F08093E9003093EB00DF011D
:1021E00011972C912093EC009093ED008F5F873036
:1021F00079F78EE78093EA001092EA008F89809346
:10220000E206DBCE8B8D9C8D1092E9001092C70602
:102210001092C6069093C5068093C406898D8111DD
:1022200092C08E899D89913A49F4813209F07DCF1F
:1022300047E050E065E071E080E0B3CF913209F013
:1022400074CF833269F48F89988DB0E0A0E08093D9
:10225000010190930201A0930301B0930401ADCE5C
:10226000803269F48091E80082FFFCCF67E085E06E
:1022700091E00E94AC038BEF8093E8009ECE823207
:1022800009F09BCE8F8980930C01EEEFFFE78591DB
:1022900094918B3F9C4D51F1E0E0F8E08091050175
:1022A00090910601A0910701B0910801803B9440F4
:1022B000A105B105F1F480910C0180FD1AC0EE3F3B
:1022C0008AE0F80789F587E797E791838083809113
:1022D00060008093C80688E19BE00FB6F894A8954B
:1022E000809360000FBE9093600067CEEEEFFAE03F
:1022F000D5CF808191818737974709F05ECEA89529
:10230000809160008861809360008091C80680930E
:102310006000EE3F2AE0F20789F08091FE0A90917A
:10232000FF0A9183808349CE808191818737980706
:1023300051F29093FF0A8093FE0AC5CF1092FF0AD4
:102340001092FE0A3ACE0E94A801DC0112960D916D
:102350001C910115110509F4E8CED801ED91FC910D
:102360000190F081E02DBE016B5E7F4FC8010995A1
:10237000811123CEF80100851185EBCF18161906BF
:102380000CF41BCED2CEF1E0FF12BECE62EF70E0B5
:1023900004CF1F920F920FB60F9211242F933F93E9
:1023A0004F935F936F937F938F939F93AF93BF935D
:1023B000EF93FF9383EE96E00E943704FF91EF9135
:1023C000BF91AF919F918F917F916F915F914F914D
:1023D0003F912F910F900FBE0F901F9018951F9255
:1023E0000F920FB60F9211242F938F939F93EF9319
:1023F000FF93E091F306F091F4068081E091F906F5
:10240000F091FA0682FD1BC090818091FC068F5FDF
:102410008F732091FD06821741F0E091FC06F0E0F9
:10242000ED51F94F958F8093FC06FF91EF919F91AD
:102430008F912F910F900FBE0F901F901895808154
:10244000F4CF1F920F920FB60F9211242F933F9348
:102450004F935F938F93EF93FF938091AE03882305
:1024600059F08091AF03811113C01B9905C081E021
:102470008093AF0310923801FF91EF918F915F919C
:102480004F913F912F910F900FBE0F901F90189575
:102490008091AF038930B8F41B9B0FC04091AF030C
:1024A000809138014150550B21E030E001C0220FEE
:1024B0004A95EAF7822B809338018091AF038F5FB2
:1024C0008093AF03D9CF8091B003803660F4E09160
:1024D000B00381E08E0F8093B003F0E0809138016B
:1024E000E35BFC4F80831092AF038091B003803692
:1024F00018F21092AE0381E08093AD03BDCFE3EEFE
:10250000F6E01382128288EE93E0A0E0B0E08483CC
:102510009583A683B78328E131E0318320832DECB6
:1025200030E0358724872CEC30E03787268728EC8D
:1025300030E0318B208B29EC30E0338B228B2AEC7E
:1025400030E0358B248B2EEC30E0378B268B118ED0
:10255000128E138E148EE0E8F7E0138212828483C9
:102560009583A683B7838AE291E0918380838FEF7E
:102570009FEF958784870895789484B5826084BDA1
:1025800084B5816084BD85B5826085BD85B5816077
:1025900085BD80916E00816080936E0010928100F5
:1025A00080918100826080938100809181008160B0
:1025B0008093810080918000816080938000809171
:1025C000910082608093910080919100816080935E
:1025D0009100809190008160809390008091C10073
:1025E00084608093C1008091C10082608093C100AB
:1025F0008091C10081608093C1008091C30081609F
:102600008093C3008091C00082608093C00080915D
:10261000C20081608093C20080917A0084608093C0
:102620007A0080917A00826080937A0080917A00AB
:10263000816080937A0080917A00806880937A002C
:102640001092E2061092CB061092CA068091D70033
:1026500081608093D70080EA8093D80089B580613B
:1026600089BD89B5826089BD09B400FEFDCF61E0F6
:1026700070E080E090E00E94B5028091D8008F7CED
:1026800080618093D8008091E000807F8093E0009B
:102690008091E1008E7E8093E1008DE08093E200E6
:1026A000559A209A60E083E00E945F0261E082E038
:1026B0000E945F0261E08DE00E945F020E94BE0600
:1026C0008FEF9FEF90938D0780938C070E94E80215
:1026D0006B017C01C0910C016AE070E080E090E049
:1026E0000E94B502C1110BC00E94E8026C197D095D
:1026F0008E099F09603A7F408105910558F30E9439
:10270000F9058CB58C7F8CBD8DB581608DBD8CB588
:10271000837F8CBD61E081E00E945F0261E081E027
:102720000E9431020E94BE0661E082E00E943102F6
:1027300062E370E080E090E00E94B502C0E0D0E08B
:102740000E94FB062097E1F30E9423048823C1F333
:102750000E940000F5CFA1E21A2EAA1BBB1BFD01AF
:102760000DC0AA1FBB1FEE1FFF1FA217B307E40770
:10277000F50720F0A21BB30BE40BF50B661F771FC8
:10278000881F991F1A9469F76095709580959095A8
:102790009B01AC01BD01CF010895EE0FFF1F059015
:1027A000F491E02D099469279627692778278727D0
:1027B00078270895A29FB001B39FC001A39F700D19
:1027C000811D1124911DB29F700D811D1124911D39
:0627D0000895F894FFCF0C
:1027D600FFFFFFFFFF00E100000000000000C180D6
:1027E60081000000000000005804B903E603A404B9
:1027F6001704F5030904000000006605E1048705D7
:082806007C05CD058B05A90539
:00000001FF
